{
  "contractName": "HelloWorld",
  "abi": [
    {
      "constant": true,
      "inputs": [],
      "name": "helloSunshine",
      "outputs": [
        {
          "name": "",
          "type": "string"
        }
      ],
      "payable": false,
      "stateMutability": "pure",
      "type": "function"
    }
  ],
  "bytecode": "0x608060405234801561001057600080fd5b5061013f806100206000396000f300608060405260043610610041576000357c0100000000000000000000000000000000000000000000000000000000900463ffffffff1680632264447414610046575b600080fd5b34801561005257600080fd5b5061005b6100d6565b6040518080602001828103825283818151815260200191508051906020019080838360005b8381101561009b578082015181840152602081019050610080565b50505050905090810190601f1680156100c85780820380516001836020036101000a031916815260200191505b509250505060405180910390f35b60606040805190810160405280601a81526020017f48656c6c6f4f4f6f6f6f4f4f2053756e7368696e65203a2929290000000000008152509050905600a165627a7a72305820e1853f49401e11d4289d749bf3c6c3701586b8fa25d70279182dcd5e1e3673760029",
  "source": "pragma solidity ^0.4.20;\n\n\ncontract HelloWorld {\n    function helloSunshine() public pure returns (string) {\n        return 'HelloOOoooOO Sunshine :)))';\n    }\n}\n",
  "sourcePath": "/Users/tim.siwula/Desktop/solidity-code/hello-world/truffleDirectory/contracts/HelloWorld.sol",
  "compiler": {
    "name": "solc",
    "version": "0.4.24+commit.e67f0147.Emscripten.clang"
  },
  "schemaVersion": "2.0.0",
  "updatedAt": "2018-05-28T11:03:16.910Z"
}